:020000040800F2
:10000000A0040020ED0100081F1400080D130008D3
:100010001D140008F9020008151E00080000000069
:100020000000000000000000000000002314000891
:10003000FB0200080000000021140008251400083D
:10004000070200080702000807020008070200086C
:10005000070200080702000807020008070200085C
:10006000070200080702000807020008070200084C
:10007000070200080702000807020008070200083C
:10008000070200080702000807020008070200082C
:10009000070200080702000807020008070200081C
:1000A000070200080702000807020008070200080C
:1000B00007020008070200080702000807020008FC
:1000C00007020008070200080702000807020008EC
:1000D00007020008070200080702000807020008DC
:1000E000FD020008070200080702000807020008D6
:1000F00007020008070200080702000807020008BC
:1001000007020008070200080702000807020008AB
:10011000070200080702000807020008070200089B
:10012000070200080702000807020008070200088B
:10013000070200080702000807020008070200087B
:10014000070200080702000807020008070200086B
:10015000070200080702000807020008070200085B
:10016000070200080702000807020008070200084B
:10017000070200080702000807020008070200083B
:10018000070200080702000807020008070200082B
:10019000070200080000000007020008070200082C
:1001A000070200080702000807020008070200080B
:1001B00007020008070200080702000807020008FB
:1001C00007020008070200080702000807020008EB
:1001D0000702000807020008DFF80CD000F07AF8E8
:1001E00000480047A11E0008A004002006488047E0
:1001F00006480047FEE7FEE7FEE7FEE7FEE7FEE70C
:10020000FEE7FEE7FEE7FEE799140008D9010008C3
:100210002DE9F05F0546002092469B46884606463B
:10022000814640241BE0284641464746224600F0CE
:1002300041F853465A46C01A914110D31146184608
:10024000224600F028F82D1A67EB01084F46224697
:100250000120002100F01FF817EB00094E41201E7D
:10026000A4F10104DFDC484631462A464346BDE896
:10027000F09FD2B201E000F8012B491EFBD270477B
:100280000022F6E710B513460A4604461946FFF762
:10029000F0FF204610BD202A04DB203A00FA02F1CC
:1002A000002070479140C2F1200320FA03F3194364
:1002B00090407047202A04DB203A21FA02F0002106
:1002C000704721FA02F3D040C2F120029140084366
:1002D00019467047064C074D06E0E06840F0010300
:1002E00094E8070098471034AC42F6D3FFF778FF44
:1002F000281F0008481F0008FEE770474FF4005011
:1003000000F002B870477047044910B50A6802420D
:1003100002D00860FFF7F7FF10BD00001404014091
:100320002DE9FC4FDFF8A0A1002301250AF1040B01
:1003300003244FF00F0C0BF1040EBDE005FA03F699
:1003400032406FD04F68012F05D0022F03D0112FFC
:1003500001D0122F17D1D0F808905F0004FA07F8E7
:1003600029EA08090097D1F80C8008FA07F848EA4A
:100370000908C0F808804768B7430E79C6F300162D
:100380009E403E434660C6684FEA430804FA08F7B9
:10039000BE4301978F6807FA08F73743C7604E6876
:1003A000022E01D0122E13D1DE0800EB8606009635
:1003B000366A5F07FF0E0CFA07F926EA0906D1F83C
:1003C000109009FA07F949EA0609009EC6F820903C
:1003D0000668019FBE430F7907F0030707FA08F785
:1003E000374307604E68F60065D5384E376E47F0E4
:1003F00001073766366E23F0030706F00106009604
:10040000334E3E44B146B6689F074FEA17780CFA60
:1004100008F7BE43B0F1904F05D02E4FB84204D13B
:10042000012717E047E0002714E02B4FB84201D125
:1004300002270FE0294FB84201D103270AE0284FD5
:10044000B84201D1042705E0264FB84201D1052763
:1004500000E0062707FA08F73743C9F80870DAF80A
:1004600000605746D1F8048096435FEAC83800D54B
:1004700016433E60DBF800605F46D1F80480964387
:100480005FEA883800D516433E60DEF800607746A4
:10049000D1F8048096435FEAC82800D516433E6031
:1004A000094F0C373E68D1F8048096435FEA8828EC
:1004B00000D516433E605B1C0A6832FA03F67FF4EF
:1004C0003DAFBDE8FC8F0000000401400010024079
:1004D000000001400004004800080048000C0048EB
:1004E00000100048001400480AB181617047816221
:1004F000704700000148806870470000000000203D
:100500000248816842681144816070470000002001
:1005100010B50024032000F077F8002000F008F860
:1005200008B1012401E000F025F8204610BD0000CC
:1005300070B50E4E05460024706898B14FF47A717C
:10054000B1FBF0F00A490968B1FBF0F000F09CFD46
:1005500040B9102D06D200222946501E00F034F872
:10056000356000E00124204670BD0000000000203E
:100570000C0000200B4808B5016E41F00101016636
:10058000016E01F001010091816D41F080518165A2
:10059000806D00F0805000900348816841F48041F4
:1005A000816008BD0010024000700040002809DB97
:1005B00000F01F02012191404009800000F1E0207D
:1005C000C0F8001170470000F0B40E4B1B680C46D9
:1005D000C3F30223C3F10705042D00D90425191D17
:1005E000072901D2002300E0DB1E012606FA05F1EF
:1005F000491E214099409E40761E16403143F0BC72
:1006000001F012BC0CED00E0064900F0070208689A
:100610004FF6FF03184040EA0220034A10430860E7
:10062000704700000CED00E00000FA052B492C4B50
:100630000A6832214A432B4940B1B0F5007F08686F
:1006400029D020F4C06040F480602CE00868C0F33A
:100650004120022804D051F8800F20F4807022E05D
:10066000D1F8800020F48070C1F88000086820F480
:10067000C06040F400700860B2FBF3F0401C00E082
:10068000401E4A69520501D50028F9D14869400544
:100690000AD503207047C0F34120022806D051F844
:1006A000800F40F48070086000207047D1F880000F
:1006B00040F48070C1F88000086820F4C06040F405
:1006C00000700860B2FBF3F0401C00E0401E4A6975
:1006D0005205DBD50028F9D1D8E700000C00002036
:1006E00040420F00007000402DE9F84304460068C6
:1006F0000026BB4D00035ED5A86D0027C00008D4BE
:10070000A86D40F08050A865A86D012700F08050CA
:100710000090DFF8D092D9F8001041F48071C9F848
:100720000010FFF7E7FE804606E000BFFFF7E2FE9D
:10073000A0EB080002282BD8D9F80000C005F5D599
:10074000D5F8900010F4407014D0216D814211D082
:10075000D5F89000D5F8901020F4407041F4803125
:10076000C5F89010D5F8901021F48031C5F890109C
:10077000C5F89000C00711D0FFF7BCFE804641F2DB
:10078000883907E0FFF7B6FEA0EB0801494501D91B
:1007900003260BE0D5F890008007F3D5D5F890003C
:1007A000216D20F440700843C5F890001FB1A86D7A
:1007B00020F08050A8652078C00707D0D5F88800C1
:1007C000616820F003000843C5F88800207880079E
:1007D00007D5D5F88800A16820F00C000843C5F8BB
:1007E00088002078400707D5D5F88800E16820F018
:1007F00030000843C5F888002078000707D5D5F8F1
:100800008800216920F0C0000843C5F888002078DE
:10081000C00607D5D5F88800616920F44070084308
:10082000C5F888002078800607D5D5F88800A1692A
:1008300020F440600843C5F888002078400607D5BA
:10084000D5F88800E16920F440500843C5F88800D5
:100850002078000607D5D5F88800216A20F44040AA
:100860000843C5F888002088C00507D5D5F888005A
:10087000616A20F440300843C5F88800206880038E
:1008800007D5D5F89C00A16A20F003000843C5F8FD
:100890009C002088800507D5D5F88800E16A20F4FF
:1008A00040200843C5F88800208840050FD5D5F8BA
:1008B0008800216B20F440100843C5F88800206BA5
:1008C000B0F5801F03D1E86840F48010E86020880C
:1008D00000050FD5D5F88800616B20F4400008436F
:1008E000C5F88800606BB0F5800F03D1E86840F46C
:1008F0008010E8602088C0040FD5D5F88800A16B6F
:1009000020F040700843C5F88800A06BB0F1807FEC
:1009100003D1E86840F48010E86020884FF000615F
:1009200080040ED5D5F88800E26B20F040601043BB
:10093000C5F88800E06B884203D1E86840F4801075
:10094000E860208840040ED5D5F88800226C20F09D
:1009500040601043C5F88800206C884203D1E868E5
:1009600040F48010E860208800040FD5D5F8880096
:10097000616C20F040500843C5F88800606CB0F10D
:10098000805F03D1E86840F48030E8602068C003ED
:100990000FD5D5F88800A16C20F040400843C5F879
:1009A0008800A06CB0F1804F03D1E86840F480303B
:1009B000E860206840030FD5D5F89C00E16C20F476
:1009C00040100843C5F89C00E06CB0F5001F03D14F
:1009D000E86840F48010E8603046BDE8F883000025
:1009E00000100240007000402DE9F0470E4605005F
:1009F0004FF0000725D0DFF8AC81D8F8000000F0F8
:100A00000F00B0420CD2D8F8001021F00F01314392
:100A1000C8F80010D8F8000000F00F00B04210D164
:100A20002968614CC80741F2883A5AD06868DFF8F3
:100A30007C91032808D0022820682DD0400500288A
:100A40002CDB0120BDE8F08720688001F9D5E06843
:100A500000F00302E068C0F30310401C032A19D021
:100A6000534A00BFB2FBF0F0E268C2F306225043E3
:100A7000E268C2F34162521C5200B0FBF2F04845FA
:100A800017D9A06810F0F00F0CD0880711D5A8680E
:100A900040B10EE0474AE5E78003D0E700F0B6F842
:100AA000484506D9A06820F0F00040F08000A06022
:100AB0008027A068696820F003000843A060FFF762
:100AC00019FD814606E000BFFFF714FDA0EB090108
:100AD00051453AD8A068696800F00C00B0EB810F6E
:100AE000F2D12868810714D5400703D5A06840F4E7
:100AF000E060A0602878000705D5A06820F4605069
:100B000040F4E060A060A068A96820F0F00008430D
:100B100004E0802F03D1A06820F0F000A060D8F896
:100B20000010404601F00F01B14216D9016821F0D2
:100B30000F0131430160FFF7DDFC074607E000BF0E
:100B4000FFF7D8FCC11B514501D903207AE7D8F83B
:100B5000000000F00F00B042F2D12878400705D520
:100B6000A068E96820F4E0600843A06028780007E6
:100B700006D5A068296920F4605040EAC100A06051
:100B800000F044F8A1680C4AC1F30311515C01F074
:100B90001F01C8400949086009480068BDE8F047DE
:100BA000FFF7C6BC002002400010024000B4C4049D
:100BB0000024F40000366E01101F00080C00002015
:100BC000000000200548064900688968054AC1F30D
:100BD0000221515C01F01F01C84070470C00002049
:100BE00000100240201F0008054806490068896877
:100BF000054AC1F3C221515C01F01F01C840704792
:100C00000C00002000100240201F0008184910B5F9
:100C10008868C0F381021748012A0BD08A68164BF6
:100C2000C2F38102022A06D08A68C2F38102032A33
:100C300003D0002010BD184610BDCA6802F003049E
:100C4000CA68C2F30312521C032C02D0B0FBF2F0AC
:100C500001E0B3FBF2F0CA68C968C2F30622504350
:100C6000C1F34161491C4900B0FBF1F010BD000027
:100C7000001002400024F40000366E012DE9F84314
:100C800004007AD02078FA4DC00747D0A868E968F8
:100C900000F00C0001F003010C2802D0082817D046
:100CA00001E0032914D06068B0F5803F17D0B0F59B
:100CB000A02F286817D020F480302860286820F4FE
:100CC000802028606068E0B1FFF714FC064614E05D
:100CD0002868800322D560680028D2D01EE02868EA
:100CE00040F48030EDE740F480202860F7E700BF53
:100CF000FFF700FC801B642870D828688003F7D5B4
:100D00000CE0FFF7F7FB064605E000BFFFF7F2FB3C
:100D1000801B6428F0D828688003F7D420788007E7
:100D20004CD5A868E96800F00C0001F003010C281C
:100D300002D004280DD001E002290AD0E068002882
:100D400028682BD040F480702860FFF7D3FB06465C
:100D500019E02868400502D5E068002891D068684D
:100D6000217C20F0FE4040EA01606860C1480068D4
:100D7000FFF7DEFB002800D120E076E1FFF7BAFBA9
:100D8000801B0228B8D828684005F7D56868217C00
:100D900020F0FE4040EA016068600FE020F48070BF
:100DA0002860FFF7A7FB064605E000BFFFF7A2FBA0
:100DB000801B0228A0D828684005F7D420780007B7
:100DC00029D560690028D5F8940013D040F00100BF
:100DD000C5F89400FFF78EFB064606E090E000BFE2
:100DE000FFF788FB801B022886D8D5F8940080077F
:100DF000F6D510E020F00100C5F89400FFF77AFB6B
:100E0000064604E0FFF776FB801B022878D8D5F869
:100E100094008007F6D42078400761D5A86D00269D
:100E2000C00008D4A86D40F08050A865A86D0126C8
:100E300000F08050009090480168C90511D4016805
:100E4000804641F480710160FFF754FB074604E0DF
:100E5000FFF750FBC01B022852D8D8F80000C0058D
:100E6000F6D5A068012815D00528D5F8900016D031
:100E700020F00100C5F89000D5F8900020F00400A3
:100E8000C5F89000A06841F28838B8B1FFF732FB8E
:100E900007460EE0D5F8900040F00100F0E740F082
:100EA0000400C5F89000F5E7FFF724FBC11B41459E
:100EB00026D8D5F890008007F6D50CE0FFF71AFB8E
:100EC000074604E0FFF716FBC11B414518D8D5F8CB
:100ED00090008007F6D41EB1A86D20F08050A86560
:100EE0002078800629D5A0690028D5F8980013D06D
:100EF00040F00100C5F89800FFF7FCFA064606E04E
:100F000077E000BFFFF7F6FA801B022877D8D5F804
:100F100098008007F6D510E020F00100C5F8980091
:100F2000FFF7E8FA064604E0FFF7E4FA801B022820
:100F300065D8D5F898008007F6D4E069F0B3A968C1
:100F4000C1F38101032961D00228286820F0807054
:100F500028600BD0E86820F00300E860E8684749A3
:100F60000840E860FFF7C6FA04464BE0FFF7C2FA14
:100F7000064604E0FFF7BEFA801B02283FD8286827
:100F80008001F7D4F4E908016FF00F0202EB0111C0
:100F90000843218A5204490802EB4151A26841EA00
:100FA00002210843217D4FF07E42490802EB416156
:100FB0000843217B40EAC160E96800E062E0304A12
:100FC00011400843E860286840F080702860E868B5
:100FD00040F08070E860FFF78DFA044605E000BF3E
:100FE000FFF788FA001B022809D828688001F7D586
:100FF00048E004E0FFF77EFA001B022802D9032034
:10100000BDE8F88328688001F4D43BE00128F7D0DC
:10101000E868226A00F00301914226D1616A00F07B
:10102000F0020901103991421FD1A26A00F4FE4179
:10103000B1EB022F19D194F82C2000F07841B1EBDC
:10104000C26F12D1218E00F4C00249084905A1F5F2
:101050000011914209D194F8341000F0C0604908A1
:101060004906A1F1007181420CD00120C8E70000BF
:10107000001002400000002000700040FFFFEEFE64
:101080000C809F010020BBE710B5401EB0F1807FAF
:1010900001D3012010BD4FF0E02460610F216017E3
:1010A00000F0C2FE0020A06107202061002010BDDA
:1010B00090F87C10012918D0012180F87C1024219F
:1010C000C0F8801050F8601B0A680B6823F0010319
:1010D0000B6022F000510022426050F8603C196021
:1010E000202101620277104670470220704770B5D8
:1010F000044690F87C0001281DD0012084F87C0073
:101100002420C4F8800020680568026822F00102EB
:1011100002602068826822F060620A438260204692
:1011200000F0C8F9206805602020C4F88000002085
:1011300084F87C0070BD022070BD70B5044690F844
:101140007C0001281DD0012084F87C002420C4F8F4
:10115000800020680568026822F0010202602068B1
:10116000826822F060420A438260204600F0A2F9C1
:10117000206805602020C4F88000002084F87C00EE
:1011800070BD022070BD10B5040003D0D4F88000FB
:1011900010B107E0012010BD002084F87C0020463B
:1011A00000F026F82420C4F880002068016821F0AF
:1011B00001010160204600F043FA0128EBD0A06A4B
:1011C00010B1204600F0A8F92068416821F4904150
:1011D00041602068816821F02A01816020680168EF
:1011E00041F0010101602046BDE8104000F0F8B96F
:1011F00010B586B0044614216846FFF741F812493D
:10120000206888421DD11148C16D41F00101C165BE
:10121000C16D01F001010591C16C41F00101C16492
:10122000C06C022100F0010005900C20CDE9000106
:1012300000210291CDE9031069464FF09040FFF77D
:101240006FF806B010BD00000080004000100240A2
:101250002DE9F8430446D0F880001F4616460D4697
:10126000202851D1DDB1D6B194F87C0001284BD0B3
:10127000012084F87C004FF00008C4F88880212009
:10128000C4F880001834FFF735F9A6878146E68751
:1012900054F8100C183CB0F5805F03D004E0012036
:1012A000BDE8F883206910B12E46002510E0002625
:1012B0000EE08021204600F07BFDB8B9C6B116F8DB
:1012C000010B21688862B4F85600401EA4F856004D
:1012D000B4F856004B464FF0000200970028E8D1C2
:1012E0004FF04001204600F063FD30B10320D7E706
:1012F00035F8020BC0F30800E3E72020C4F88000B3
:1013000084F87C800020CBE70220C9E7FEE70000DC
:1013100030B587B014216846FEF7B2FF2348C16C90
:1013200041F00401C164C16C01F004010591C16C7C
:1013300041F02001C164C16C01F020010591C16C34
:1013400041F00101C164C16C01F001010591C16C62
:1013500041F00201C164C06C4FF0904500F0020002
:101360000590002220212846FFF7BEF84FF40050D8
:1013700000900F480024CDE9010469460D48FEF7AE
:10138000CFFF202000900120CDE9010469462846C6
:101390000394FEF7C5FF002211462820FFF714F939
:1013A0002820FFF703F907B030BD0000001002400D
:1013B0000000111000080048174810B515490160D9
:1013C0004FF4E1314160002181600C22C160C0E92D
:1013D0000412816101628162FFF7D5FE08B1FEF758
:1013E00091FF00210C48FFF7A8FE08B1FEF78AFF25
:1013F00000210948FFF77BFE08B1FEF783FF06488E
:10140000FFF756FE002803D0BDE81040FEF77ABF74
:1014100010BD00000080004014000020FEE770476F
:1014200070477047FFF76CB810B5A8B03821684610
:10143000FEF726FF142123A8FEF722FF54210EA851
:10144000FEF71EFF0020FFF7F1F80220C101039113
:10145000402104910421CDE9080100905521CDE9F6
:101460000A1007900C900D906846FFF707FC0F20BC
:10147000002423900320CDE924042694082123A8E6
:101480002794FFF7B1FA20200E9014940EA8FFF7CE
:101490002BF928B010BD00000548016841F4700127
:1014A000016003494FF00060803908607047000018
:1014B00088ED00E03FB514A1D1E90021CDE900217C
:1014C00013A2D2E90012CDE90212416EB9B102684D
:1014D00091689268C1F34261520F1DF80240E50025
:1014E00002ACA25CB5FBF2F2A0F86A201DF8012064
:1014F000615CD200B2FBF1F1A0F868103FBD0121A0
:10150000A0F86A10F8E700000101010307010000DC
:10151000080402040801010190F82810C90706D048
:1015200001684A68C36A22F400321A434A6090F89C
:101530002810890706D501684A68036B22F48032B7
:101540001A434A6090F82810490706D501684A688E
:10155000436B22F480221A434A6090F8281009074E
:1015600006D501684A68836B22F400421A434A6038
:1015700090F82810C90606D501688A68C36B22F462
:1015800080521A438A6090F82810890606D50168AF
:101590008A68036C22F400521A438A6090F828107B
:1015A000490611D501684A68436C22F480121A4337
:1015B0004A60416CB1F5801F06D101684A68836CAE
:1015C00022F4C0021A434A6090F82810090606D592
:1015D00001684A68C06C22F4002202434A607047E6
:1015E000F8B500260446C0F88860FEF783FF05467C
:1015F000206800686FF07E47000708D52B46002260
:101600004FF400112046009700F0D2FB60B920682B
:10161000006840070AD52B4600224FF4800120467F
:10162000009700F0C5FB08B10320F8BD2020C4F8E6
:101630008000C4F8840084F87C600020F8BD0000BD
:101640002DE9F05F0446016880682369E569184365
:10165000636900272B431843636EF64A0343086807
:10166000F54D28401843086020684168E36821F47C
:101670004051194341602168A069914201D0236A19
:1016800018438B68ED4D2B4003438B602068C16A83
:10169000636A21F00F011943C162EA49E84B2068EF
:1016A0008E1598420DD1D1F8881011F0030106D0A3
:1016B000012969D0022965D0032950D166E00125AE
:1016C0004EE0E14B98420BD1D1F8881011F00C019B
:1016D00056D0042958D0082954D00C293FD155E0C0
:1016E000DA4B98420BD1D1F8881011F0300147D075
:1016F000102949D0202945D0302930D146E0D44B9B
:1017000098420BD1D1F8881011F0C00138D040298F
:101710003AD0802936D0C02921D137E0CD4B98422C
:101720000DD1D1F8881011F4407129D0B1422BD0DD
:10173000B1F5007F26D0B1F5407F10D126E0904270
:101740000DD1D1F8881011F4406119D0B1F5806F36
:101750001AD0B1F5006F15D0B1F5406F16D0102535
:10176000DFF8F4A24FF000094FF4004B90426ED125
:1017700075B1022D29D0042D59D0082D68D176E0FD
:101780000025EDE70225EBE70425E9E70825E7E773
:10179000FFF718FA4DE0012851D0022851D0032854
:1017A00051D0042851D0052853D0062853D00728FB
:1017B00053D0082853D0092853D00A2853D00B28D7
:1017C00053D03AE0B1FBF0F06CE0606AA8B10128B8
:1017D00017D0022817D0032817D0042817D00528BF
:1017E00017D0062817D0072817D0082817D009289F
:1017F00017D00A2817D00B2817D00120BAFBF0F019
:1018000050E00220FAE70420F8E70620F6E7082077
:10181000F4E70A20F2E70C20F0E71020EEE72020A2
:10182000ECE74020EAE78020E8E73046E6E7FFF70C
:10183000EDF90146606A0028ADD10120C2E702201F
:10184000C0E70420BEE70620BCE70820BAE738E17D
:101850004AE00A20B6E70C20B4E71020B2E72020C7
:10186000B0E74020AEE78020ACE73046AAE7606AE8
:10187000A8B1012822D0022822D0032822D004288F
:1018800022D0052822D0062822D0072822D00828D6
:1018900022D0092822D00A2822D00B2822D00120C9
:1018A000BBFBF0F0002820D06168884601EB4101C5
:1018B000814219D8B0EB083F16D817E00220EFE7B5
:1018C0000420EDE70620EBE70820E9E70A20E7E738
:1018D0000C20E5E71020E3E72020E1E74020DFE7E8
:1018E0008020DDE73046DBE701270EE27DB3022DE5
:1018F0007ED0042D73D0082DF6D1606AA8B10128DE
:101900006ED002286DD003286CD004286BD0052837
:101910006AD0062869D0072868D0082867D0092827
:101920007ED00A287DD00B2800D0012632464D46B5
:10193000002358460021FEF76BFC090241EA1061C2
:1019400002024FEA58001018694142463DE0FFE7A5
:10195000FFF738F99AE0012815D0022815D003289E
:1019600015D0042815D0052815D0062815D007282D
:1019700015D0082815D0092815D00A2815D00B280D
:1019800014D0012612E0022610E004260EE00626FE
:101990000CE008260AE00A2608E00C2606E01026DD
:1019A00004E0202602E0402600E0802600230846CE
:1019B00032464D461946FEF72BFC0902626841EAA1
:1019C000106103025008181869410023FEF720FC3B
:1019D000224AA0F54071914270D985E708E053E0B2
:1019E0005AE05BE05CE05DE05EE05FE060E061E00B
:1019F000606AC0B1012833D0022833D0032833D025
:101A0000042833D0052833D0062833D0072833D014
:101A1000082833D0092833D00A2833D00B2801E016
:101A20004AE04CE000D0012632464D4600235046A5
:101A300080E7000000800040F369FFCFFFF4FF1152
:101A400000380140001002400044004000480040BF
:101A5000004C0040005000400024F400FFFC0F0048
:101A60000226E1E70426DFE70626DDE70826DBE7B6
:101A70000A26D9E70C26D7E71026D5E72026D3E794
:101A80004026D1E78026CFE7FFF7C0F80146606A1D
:101A900000283FF476AF5EE7022647E7042645E7D5
:101AA000062643E7082641E70A263FE70C263DE7DE
:101AB00010263BE7202639E7402637E723E180263A
:101AC00034E7E0694FF6EF7858456ED1092D84D29E
:101AD000DFE805F006093C0580050505830003E7FE
:101AE000FFF770F801E0FFF77FF80146606AA8B1E0
:101AF000012815D0022815D0032815D0042815D0A8
:101B0000052815D0062815D0072815D0082815D087
:101B1000092815D00A2815D00B2814D0012612E068
:101B2000022610E004260EE006260CE008260AE055
:101B30000A2608E00C2606E0102604E0202602E033
:101B4000402600E08026B1FBF6F01AE0606AA8B1FA
:101B500001282BD002282BD003282BD004282BD0EF
:101B600005282BD006282BD007282BD008282BD0CF
:101B700009282BD00A282BD00B2800D00126BAFB2D
:101B8000F6F04100606801EB5001B1FBF0F080B26B
:101B9000A0F110014145A2D84FF6F0710140C0F309
:101BA000420001432068C160AFE046E00226E6E75C
:101BB0000426E4E70626E2E70826E0E70A26DEE751
:101BC0000C26DCE71026DAE72026D8E74026D6E701
:101BD0008026D4E7FFF71AF887E7606AA8B10128E2
:101BE00017D0022817D0032817D0042817D00528AB
:101BF00017D0062817D0072817D0082817D009288B
:101C000017D00A2817D00B2800D00126BBFBF6F00E
:101C1000B7E70226FAE70426F8E70626F6E70826DD
:101C2000F4E70A26F2E70C26F0E71026EEE7202676
:101C3000ECE74026EAE78026E8E7092DBFF4CDAEC1
:101C4000DFE805F006093C058305050586004BE63F
:101C5000FEF7B8FF01E0FEF7C7FF0146606AA8B1D2
:101C6000012815D0022815D0032815D0042815D036
:101C7000052815D0062815D0072815D0082815D016
:101C8000092815D00A2815D00B2814D0012612E0F7
:101C9000022610E004260EE006260CE008260AE0E4
:101CA0000A2608E00C2606E0102604E0202602E0C2
:101CB000402600E08026B1FBF6F11AE0606AA8B188
:101CC00001282ED002282ED003282ED004282ED072
:101CD00005282ED006282ED007282ED008282ED052
:101CE00009282ED00A282ED00B2800D00126BAFBB6
:101CF000F6F1606801EB5001B1FBF0F080B2A0F1A9
:101D000010014145A3D82168C8600120A4F86A00E9
:101D100024F8680F3846C4F80490C4F80890BDE869
:101D2000F09F0226E3E70426E1E70626DFE7082620
:101D3000DDE70A26DBE70C26D9E71026D7E72026C1
:101D4000D5E74026D3E78026D1E7FEF75FFF84E79B
:101D5000606AA8B1012817D0022817D0032817D02D
:101D6000042817D0052817D0062817D0072817D021
:101D7000082817D0092817D00A2817D00B2800D018
:101D80000126BBFBF6F1B4E70226FAE70426F8E7E2
:101D90000626F6E70826F4E70A26F2E70C26F0E71F
:101DA0001026EEE72026ECE74026EAE78026E8E763
:101DB0002DE9F041984617460E460446069D08E078
:101DC000681C06D0FEF796FBA0EB0800A8420BD8D3
:101DD00055B12068C06936EA000019D00020B84229
:101DE000EED00020BDE8F0812068016821F4D071B8
:101DF00001602068816821F0010181602020C4F821
:101E00008000C4F88400002084F87C000320E9E707
:101E10000120E4E7FEE70000014A024900F023B890
:101E2000891E0008100000200907090E002804DBA5
:101E300000F1E02080F80014704700F00F0000F17E
:101E4000E02080F8141D704702E008C8121F08C186
:101E5000002AFAD170477047002001E001C1121F2B
:101E6000002AFBD170472DE9F04116460F46044683
:101E7000002503E03946B047641C6D1C207800281B
:101E8000F8D12846BDE8F08113B50A23012269463E
:101E90000248FFF7DDF900981CBD00001400002087
:101EA000FEF736FBFFF7C0FAFFF732FAFFF784FAC6
:101EB00006A0FFF7B1FF0AA0FFF7AEFF0CA0FFF7E7
:101EC000ABFF0FA0FFF7A8FFFEE700000D0A4C5084
:101ED0007561727431206973206F6B2100000000FE
:101EE0000D0A4E6F312043655368692100000000E0
:101EF0000D0A4E6F322043655368692100000000CF
:101F00000D0A4E6F332043655368692100000000BD
:101F10000000000000000000010203040607080999
:101F20000000000001020304481F00080000002018
:101F300014000000481E00085C1F00081400002068
:101F40008C040000581E0008100000000100000072
:0C1F5000000000000024F400000000006D
:04000005080001D915
:00000001FF
